:020000040800F2
:1000000000500020B90F0008490F00084B0F0008EE
:100010004D0F00084F0F0008510F000800000000AE
:10002000000000000000000000000000530F000866
:10003000550F000800000000570F0008590F000876
:10004000011000080110000801100008011000084C
:10005000011000080110000801100008011000083C
:10006000011000080110000801100008011000082C
:10007000011000080110000801100008011000081C
:10008000011000080110000801100008011000080C
:1000900001100008011000080110000801100008FC
:1000A00001100008011000080110000801100008EC
:1000B00001100008011000080110000801100008DC
:1000C00001100008011000080110000801100008CC
:1000D00001100008011000080110000801100008BC
:1000E000610F000801100008011000080000000066
:1000F0000000000000000000000000000000000000
:0C01000000000000000000005FF808F1A3
:10010C0010B5054C237833B9044B13B10448AFF345
:10011C0000800123237010BD0C00002000000000A3
:10012C005C10000808B5034B1BB103490348AFF33F
:10013C00008008BD00000000100000205C100008CA
:10014C0010B504460E4B18784FF47A73B3FBF0F3EA
:10015C000C4A1068B0FBF3F000F0A0F868B90F2C53
:10016C0001D901200AE0002221464FF0FF3000F0B7
:10017C0055F8034B5C60002000E0012010BD00BF6F
:10018C00000000200800002008B5074A136843F05F
:10019C0010031360032000F02FF80020FFF7D0FFAE
:1001AC0000F07AFE002008BD00200240034A1168CE
:1001BC00034B1B780B441360704700BF28000020D2
:1001CC0000000020014B1868704700BF2800002079
:1001DC0038B50446FFF7F6FF0546B4F1FF3F02D0F1
:1001EC00044B1B781C44FFF7EDFF401BA042FAD3D5
:1001FC0038BD00BF00000020074AD36823F4E06339
:10020C001B041B0C000200F4E060184340F0BF60BC
:10021C0040F40030D060704700ED00E030B4174B74
:10022C00DB68C3F30223C3F10704042C28BF0424A6
:10023C001D1D062D18D9033B4FF0FF3505FA04F4AC
:10024C0021EA0401994005FA03F322EA0303194356
:10025C0000280BDB0901C9B200F1604000F56140D8
:10026C0080F8001330BC70470023E5E700F00F0066
:10027C000901C9B2024B1954F4E700BF00ED00E0CC
:10028C0014ED00E000F01F02400901239340024AE4
:10029C0042F82030704700BF00E100E00138B0F1B7
:1002AC00807F0AD2064B5860064AF02182F8231050
:1002BC000020986007221A6070470120704700BF29
:1002CC0010E000E000ED00E0F0B482B0002635460E
:1002DC00A1E0002C59D0012C00D1CE68FF2B68D89E
:1002EC008446FF2B68D8AC00DCF800200F27A74011
:1002FC0022EA070206FA04F42243CCF800204A68EA
:10030C0012F0805F00F086805E4A946944F001042C
:10031C009461926902F001020192019AAC08A71C47
:10032C00594A52F8272005F00307BF004FF00F0C75
:10033C000CFA07FC22EA0C0C544A904242D002F50B
:10034C00806290427FD002F5806290427DD002F5AF
:10035C008062904234D0042235E04D4FBC4214D020
:10036C000BD94C4FBC4210D007F58037BC420CD097
:10037C00A7F58017BC42B1D107E0A7F58017BC42A6
:10038C0003D007F58037BC42A8D18C687CB1012C16
:10039C0008D042610826A1E7CE6808369EE7CE68F1
:1003AC000C369BE70261082698E7002696E70426A0
:1003BC0094E700F1040C94E7A5F10804A40093E77A
:1003CC00032200E00022BA4042EA0C0202342E4F13
:1003DC0047F824204A6812F4803F38D02E4C22680B
:1003EC001A4322604A6812F4003F36D02A4C6268E5
:1003FC001A4362604A6812F4801F34D0264CA268FB
:10040C001A43A2604A6812F4001F32D0224CE268F0
:10041C001343E36001350F2D31D80122AA400B683C
:10042C0013409A42F6D14C68122CB8D095D8022CB5
:10043C00B2D07FF64EAF032CB7D0112C7FF44EAF59
:10044C00CE6804364AE70122BDE70222BBE7124C14
:10045C00226822EA03022260C4E70F4C626822EA97
:10046C0003026260C6E70C4CA26822EA0302A26097
:10047C00C8E7094CE26822EA0303E360CAE702B06A
:10048C00F0BC704700100240000001400008014021
:10049C0000002110000031100004014012B90904C1
:1004AC000161704701617047C3685940C160704772
:1004BC007047000008B5054B5B69034200D108BDCD
:1004CC00024B5861FFF7F4FFF9E700BF000401404D
:1004DC0082B0084B1B68084AA2FB03235B0A00FB93
:1004EC0003F0019000BF019B5A1E0192002BF9D121
:1004FC0002B0704708000020D34D621070B582B076
:10050C000446036813F0010F2CD0AB4B5B6803F06F
:10051C000C03042B1DD0A84B5B6803F00C03082BB9
:10052C0012D06368B3F5803F41D0002B55D103F155
:10053C00804303F504331A6822F480321A601A6877
:10054C0022F480221A6037E09B4B5B6813F4803FE7
:10055C00E7D0994B1B6813F4003F03D06368002B62
:10056C0000F0AE81236813F0020F76D0924B5B68DB
:10057C0013F00C0F5FD0904B5B6803F00C03082B4F
:10058C0054D02369002B00F08A808C4B01221A6016
:10059C00FFF718FE0546884B1B6813F0020F75D148
:1005AC00FFF710FE401B0228F5D903208BE1824A8D
:1005BC00136843F480331360636843B3FFF702FEA0
:1005CC0005467D4B1B6813F4003FCBD1FFF7FAFDBA
:1005DC00401B6428F5D9032075E1B3F5A02F09D091
:1005EC00754B1A6822F480321A601A6822F4802241
:1005FC001A60E1E703F18043A3F53C331A6842F437
:10060C0080221A601A6842F480321A60D4E7FFF72D
:10061C00D9FD0546684B1B6813F4003FA2D0FFF7C9
:10062C00D1FD401B6428F5D903204CE1624B5B687B
:10063C0013F4803FA5D1604B1B6813F0020F04D05C
:10064C002369012B01D001203DE15B4A136823F0A3
:10065C00F803616943EAC1031360236813F0080FC0
:10066C0032D0A369002B5BD0554B01221A60FFF7E7
:10067C00A9FD0546504B5B6A13F0020F21D1FFF721
:10068C00A1FD401B0228F5D903201CE14A4A13683E
:10069C0023F0F803616943EAC1031360DDE7474BBC
:1006AC0000221A60FFF78EFD0546434B1B6813F0C2
:1006BC00020FD2D0FFF786FD401B0228F5D903208C
:1006CC0001E10120FFF704FF236813F0040F00F091
:1006DC009780394BDB6913F0805F33D1364BDA6985
:1006EC0042F08052DA61DB6903F080530193019B85
:1006FC000125344B1B6813F4807F25D0E368012B54
:10070C0036D0002B4CD103F1804303F504331A6A25
:10071C0022F001021A621A6A22F004021A622CE018
:10072C00274B00221A60FFF74DFD0546224B5B6AF2
:10073C0013F0020FC8D0FFF745FD401B0228F5D976
:10074C000320C0E00025D4E71E4A136843F48073ED
:10075C001360FFF737FD06461A4B1B6813F4807FB6
:10076C00CCD1FFF72FFD801B6428F5D90320AAE01C
:10077C00114A136A43F001031362E36873B3FFF782
:10078C0021FD06460C4B1B6A13F0020F37D1FFF705
:10079C0019FD801B41F288339842F3D9032092E073
:1007AC00052B11D0044B1A6A22F001021A621A6A44
:1007BC0022F004021A62E0E70010024000004242FC
:1007CC008004424200700040414B1A6A42F004021D
:1007DC001A621A6A42F001021A62CEE7FFF7F2FCC3
:1007EC0006463B4B1B6A13F0020F08D0FFF7EAFCDE
:1007FC00801B41F288339842F3D9032063E0E5B9BA
:10080C00E369002B5ED0324A526802F00C02082ACF
:10081C005BD0022B17D02F4B00221A60FFF7D2FCB3
:10082C0004462B4B1B6813F0007F47D0FFF7CAFC24
:10083C00001B0228F5D9032045E0254AD36923F093
:10084C008053D361DCE7234B00221A60FFF7BAFC1C
:10085C0005461F4B1B6813F0007F06D0FFF7B2FC58
:10086C00401B0228F5D903202DE0236AB3F5803F05
:10087C001AD017494B6823F47413226A606A024336
:10088C0013434B60134B01221A60FFF79BFC044689
:10089C000F4B1B6813F0007F0ED1FFF793FC001B6E
:1008AC000228F5D903200EE0094A536823F40033DB
:1008BC00A1680B435360DCE7002004E0002002E059
:1008CC00012000E0002002B070BD0120FBE700BF5A
:1008DC00001002406000424210B487B0164C94E8FD
:1008EC000F000DF1180C0CE90F00238AADF8043041
:1008FC00124B5B6803F00C02082A1AD1C3F3834233
:10090C00624412F8102C13F4803F05D10C4800FB04
:10091C0002F007B010BC7047084B5B68C3F3404350
:10092C00634413F8143C074800FB02F0B0FBF3F0EF
:10093C00EFE70448EDE700BF741000080010024018
:10094C0000093D0000127A00624B1B6803F007039C
:10095C008B420CD25F4A136823F007030B431360DE
:10096C00136803F007038B4201D00120704770B568
:10097C00036813F0020F17D013F0040F04D0564A7B
:10098C00536843F4E0635360036813F0080F04D01A
:10099C00514A536843F4605353604F4A536823F0F1
:1009AC00F0038468234353600D460446036813F038
:1009BC00010F52D04368012B23D0022B28D0464A7A
:1009CC00126812F0020F00F0828043494A6822F04C
:1009DC00030213434B60FFF7F5FB06466368012BDC
:1009EC001DD0022B2AD03C4B5B6813F00C0F34D07B
:1009FC00FFF7E8FB801B41F288339842F3D90320C0
:100A0C0064E0354A126812F4003FDED101205DE04B
:100A1C00314A126812F0007FD7D1012056E02E4BDC
:100A2C005B6803F00C03042B17D0FFF7CBFB801B88
:100A3C0041F288339842F2D9032047E0264B5B6899
:100A4C0003F00C03082B08D0FFF7BCFB801B41F212
:100A5C0088339842F2D9032038E01E4B1B6803F010
:100A6C000703AB420CD91B4A136823F007032B4333
:100A7C001360136803F00703AB4201D0012025E09B
:100A8C00236813F0040F06D0134A536823F4E06371
:100A9C00E1680B435360236813F0080F07D00E4A2C
:100AAC00536823F46053216943EAC1035360FFF791
:100ABC0013FF094B5B68C3F30313084AD35CD8409C
:100ACC00074B18600020FFF73BFB002070BD012096
:100ADC00FCE700BF00200240001002408810000814
:100AEC0008000020014B1868704700BF0800002068
:100AFC0008B5FFF7F7FF044B5B68C3F30223034A07
:100B0C00D35CD84008BD00BF00100240981000080C
:100B1C0008B5FFF7E7FF044B5B68C3F3C223034A36
:100B2C00D35CD84008BD00BF0010024098100008EC
:100B3C002DE9F84305460268136923F44053C16854
:100B4C000B431361836802691343426913430168C1
:100B5C00CA6822F4B05222F00C021343CB60026834
:100B6C00536923F4407381690B4353610268594BF9
:100B7C009A4257D0FFF7BCFF00EB800000EB8000DF
:100B8C006C68A400B0FBF4F4534FA7FB0434640965
:100B9C002601FFF7ADFF00EB800000EB80006C68D6
:100BAC00A400B0FBF4F9FFF7A3FF00EB800000EB0F
:100BBC0080006C68A400B0FBF4F4A7FB0434640957
:100BCC004FF0640808FB149424013234A7FB04345E
:100BDC00640904F0F0043444FFF78AFF00EB800052
:100BEC0000EB80006E68B600B0FBF6F6FFF780FFF6
:100BFC0000EB800000EB80006B689B00B0FBF3F017
:100C0C00A7FB0030400908FB10684FEA081808F1F0
:100C1C003208A7FB0837C7F343172B6827449F609C
:100C2C00BDE8F883FFF774FF00EB800000EB800059
:100C3C006C68A400B0FBF4F4274FA7FB04346409E0
:100C4C002601FFF765FF00EB800000EB80006C686D
:100C5C00A400B0FBF4F9FFF75BFF00EB800000EBA6
:100C6C0080006C68A400B0FBF4F4A7FB04346409A6
:100C7C004FF0640808FB149424013234A7FB0434AD
:100C8C00640904F0F0043444FFF742FF00EB8000E9
:100C9C0000EB80006E68B600B0FBF6F6FFF738FF8D
:100CAC0000EB800000EB80006B689B00B0FBF3F066
:100CBC00A7FB0030400908FB10684FEA081808F140
:100CCC003208A7FB0837C7F343172B6827449F60EC
:100CDC00A6E700BF003801401F85EB5158B310B593
:100CEC00044690F839300BB3242384F83930226849
:100CFC00D36823F40053D3602046FFF719FF226812
:100D0C00136923F4904313612268536923F02A0377
:100D1C0053612268D36843F40053D3600020E0632E
:100D2C00202384F8393084F83A3010BD80F83830FC
:100D3C0000F0D4F8D8E701207047000030B589B036
:100D4C0000240494059406940794264B9A6942F067
:100D5C0010029A619A6902F010020092009A9A6944
:100D6C0042F020029A619A6902F020020192019AE3
:100D7C009A6942F004029A619A6902F004020292A2
:100D8C00029A9A6942F008029A619B6903F008037F
:100D9C000393039B144D22464FF484612846FFF7BE
:100DAC007DFB4FF400530493104B0593069404A958
:100DBC000F48FFF789FA4FF48463049301230593DA
:100DCC0006940223079304A92846FFF77DFA2246CE
:100DDC0021462820FFF722FA2820FFF753FA09B002
:100DEC0030BD00BF0010024000080140000011108F
:100DFC000010014008B50848084B03604FF4E1337C
:100E0C00436000238360C36003610C2242618361F1
:100E1C00C361FFF763FF08BD2C00002000440040B5
:100E2C0030B591B02022002107A800F009F9002468
:100E3C0001940294039404940594022506950123CD
:100E4C000A9310230B930D954FF460130F9306A880
:100E5C00FFF754FB0F230193029503944FF4806327
:100E6C0004930594294601A8FFF76EFD11B030BD1F
:100E7C0008B5FFF789F9FFF7D3FFFFF75FFFFFF71F
:100E8C00B9FF4FF480610348FFF70EFBC820FFF752
:100E9C009FF9F6E70008014082B00E4B9A6942F0C8
:100EAC0001029A619A6902F001020092009ADA69D1
:100EBC0042F08052DA61DB6903F080530193019BAD
:100ECC00054A536823F0E06343F00073536002B0AB
:100EDC00704700BF001002400000014000B587B011
:100EEC00002302930393049305930268114B9A42D7
:100EFC0002D007B05DF804FB03F5E633DA6942F47F
:100F0C000032DA61DA6902F400320092009A9A69CE
:100F1C0042F004029A619B6903F004030193019B64
:100F2C000C23029302230393059302A90248FFF7B3
:100F3C00CBF9DEE700440040000801407047FEE7B3
:100F4C00FEE7FEE7FEE770477047704708B5FFF70E
:100F5C002DF908BD08B54FF40050FFF7ABFA08BDEA
:100F6C000F4B1A6842F001021A6059680D4A0A4088
:100F7C005A601A6822F0847222F480321A601A685D
:100F8C0022F480221A605A6822F4FE025A604FF44E
:100F9C001F029A60044B4FF000629A60704700BFCA
:100FAC00001002400000FFF800ED00E0002103E01B
:100FBC000B4B5B58435004310A480B4B42189A4276
:100FCC00F6D30A4A02E0002342F8043B084B9A424B
:100FDC00F9D3FFF7C5FF00F00FF8FFF749FF704793
:100FEC00A8100008000000200C0000200C000020BD
:100FFC006C000020FEE7000070B500250C4E0D4C77
:10100C00A41BA410A54209D100F022F800250A4E19
:10101C000A4CA41BA410A54205D170BD56F825306E
:10102C0098470135EEE756F8253098470135F2E739
:10103C00A0100008A0100008A0100008A4100008C0
:10104C0003460244934200D1704703F8011BF9E7B1
:10105C00F8B500BFF8BC08BC9E467047F8B500BF99
:08106C00F8BC08BC9E46704769
:1010740002030405060708090A0B0C0D0E0F1010D5
:10108400010200000000000000000000010203044F
:0C10940006070809000000000102030428
:0410A0003101000812
:0410A4000D01000832
:0C10A800010000001000000000A24A043B
:0400000508000FB927
:00000001FF
